{
  "contractName": "MyContract",
  "abi": [
    {
      "constant": true,
      "inputs": [],
      "name": "value",
      "outputs": [
        {
          "name": "",
          "type": "int256"
        }
      ],
      "payable": false,
      "stateMutability": "view",
      "type": "function"
    },
    {
      "constant": true,
      "inputs": [],
      "name": "owner",
      "outputs": [
        {
          "name": "",
          "type": "address"
        }
      ],
      "payable": false,
      "stateMutability": "view",
      "type": "function"
    },
    {
      "inputs": [],
      "payable": false,
      "stateMutability": "nonpayable",
      "type": "constructor"
    },
    {
      "anonymous": false,
      "inputs": [
        {
          "indexed": false,
          "name": "value",
          "type": "int256"
        }
      ],
      "name": "SetValue",
      "type": "event"
    },
    {
      "constant": false,
      "inputs": [
        {
          "name": "v",
          "type": "int256"
        }
      ],
      "name": "setValue",
      "outputs": [],
      "payable": false,
      "stateMutability": "nonpayable",
      "type": "function"
    },
    {
      "constant": true,
      "inputs": [],
      "name": "getValue",
      "outputs": [
        {
          "name": "",
          "type": "int256"
        }
      ],
      "payable": false,
      "stateMutability": "view",
      "type": "function"
    }
  ],
  "bytecode": "0x608060405234801561001057600080fd5b50336000806101000a81548173ffffffffffffffffffffffffffffffffffffffff021916908373ffffffffffffffffffffffffffffffffffffffff1602179055506101e5806100606000396000f300608060405260043610610062576000357c0100000000000000000000000000000000000000000000000000000000900463ffffffff16806320965255146100675780633fa4f245146100925780635093dc7d146100bd5780638da5cb5b146100ea575b600080fd5b34801561007357600080fd5b5061007c610141565b6040518082815260200191505060405180910390f35b34801561009e57600080fd5b506100a761014b565b6040518082815260200191505060405180910390f35b3480156100c957600080fd5b506100e860048036038101908080359060200190929190505050610151565b005b3480156100f657600080fd5b506100ff610194565b604051808273ffffffffffffffffffffffffffffffffffffffff1673ffffffffffffffffffffffffffffffffffffffff16815260200191505060405180910390f35b6000600154905090565b60015481565b806001819055507fe5841a16311d3f7587d0fdd863cbb464a3131712f738d4fc92de48143dc90ec56001546040518082815260200191505060405180910390a150565b6000809054906101000a900473ffffffffffffffffffffffffffffffffffffffff16815600a165627a7a723058201ab93e5fbd6944d173865c4b40c6ee1fcbd2a4b6c924352e00f2fee93aa9e0ae0029",
  "source": "pragma solidity ^0.4.23;\r\n\r\ncontract MyContract {\r\n    address public owner;\r\n    int public value;\r\n\r\n    event SetValue(int value);\r\n\r\n    constructor() public {\r\n        owner = msg.sender;\r\n    }\r\n\r\n    function setValue(int v) public {\r\n        value = v;\r\n\r\n        emit SetValue(value);\r\n    }\r\n\r\n    function getValue() public view returns(int) {\r\n        return value;\r\n    }\r\n}\r\n",
  "sourcePath": "D:\\working\\svn\\kyccchain\\examples\\truffle\\MyContract\\contracts\\MyContract.sol",
  "compiler": {
    "name": "solc",
    "version": "0.4.24+commit.e67f0147.Emscripten.clang"
  },
  "schemaVersion": "2.0.1",
  "updatedAt": "2018-11-19T00:34:17.316Z"
}